{
      "contractName": "Agreement",
      "abi": [
            {
                  "inputs": [],
                  "stateMutability": "nonpayable",
                  "type": "constructor"
            },
            {
                  "anonymous": false,
                  "inputs": [
                        {
                              "indexed": false,
                              "internalType": "address",
                              "name": "approver",
                              "type": "address"
                        }
                  ],
                  "name": "AgreementApproved",
                  "type": "event"
            },
            {
                  "anonymous": false,
                  "inputs": [
                        {
                              "indexed": false,
                              "internalType": "address",
                              "name": "sender",
                              "type": "address"
                        },
                        {
                              "indexed": false,
                              "internalType": "address",
                              "name": "receiver",
                              "type": "address"
                        },
                        {
                              "indexed": false,
                              "internalType": "string",
                              "name": "termsText",
                              "type": "string"
                        }
                  ],
                  "name": "AgreementCreated",
                  "type": "event"
            },
            {
                  "inputs": [],
                  "name": "agreement",
                  "outputs": [
                        {
                              "internalType": "string",
                              "name": "termsAndCondition",
                              "type": "string"
                        },
                        {
                              "internalType": "address",
                              "name": "sender",
                              "type": "address"
                        },
                        {
                              "internalType": "address",
                              "name": "receiver",
                              "type": "address"
                        },
                        {
                              "internalType": "bool",
                              "name": "approved",
                              "type": "bool"
                        }
                  ],
                  "stateMutability": "view",
                  "type": "function",
                  "constant": true
            },
            {
                  "inputs": [],
                  "name": "owner",
                  "outputs": [
                        {
                              "internalType": "address",
                              "name": "",
                              "type": "address"
                        }
                  ],
                  "stateMutability": "view",
                  "type": "function",
                  "constant": true
            },
            {
                  "inputs": [
                        {
                              "internalType": "string",
                              "name": "_termsText",
                              "type": "string"
                        },
                        {
                              "internalType": "address",
                              "name": "_receiver",
                              "type": "address"
                        }
                  ],
                  "name": "createAgreement",
                  "outputs": [],
                  "stateMutability": "nonpayable",
                  "type": "function"
            },
            {
                  "inputs": [],
                  "name": "approveAgreement",
                  "outputs": [],
                  "stateMutability": "nonpayable",
                  "type": "function"
            }
      ],
      "bytecode": "0x60806040523480156200001157600080fd5b50336000806101000a81548173ffffffffffffffffffffffffffffffffffffffff021916908373ffffffffffffffffffffffffffffffffffffffff16021790555060405180602001604052806000815250600160000190816200007591906200037f565b5060006001800160006101000a81548173ffffffffffffffffffffffffffffffffffffffff021916908373ffffffffffffffffffffffffffffffffffffffff1602179055506000600160020160006101000a81548173ffffffffffffffffffffffffffffffffffffffff021916908373ffffffffffffffffffffffffffffffffffffffff16021790555062000466565b600081519050919050565b7f4e487b7100000000000000000000000000000000000000000000000000000000600052604160045260246000fd5b7f4e487b7100000000000000000000000000000000000000000000000000000000600052602260045260246000fd5b600060028204905060018216806200018757607f821691505b6020821081036200019d576200019c6200013f565b5b50919050565b60008190508160005260206000209050919050565b60006020601f8301049050919050565b600082821b905092915050565b600060088302620002077fffffffffffffffffffffffffffffffffffffffffffffffffffffffffffffffff82620001c8565b620002138683620001c8565b95508019841693508086168417925050509392505050565b6000819050919050565b6000819050919050565b6000620002606200025a62000254846200022b565b62000235565b6200022b565b9050919050565b6000819050919050565b6200027c836200023f565b620002946200028b8262000267565b848454620001d5565b825550505050565b600090565b620002ab6200029c565b620002b881848462000271565b505050565b5b81811015620002e057620002d4600082620002a1565b600181019050620002be565b5050565b601f8211156200032f57620002f981620001a3565b6200030484620001b8565b8101602085101562000314578190505b6200032c6200032385620001b8565b830182620002bd565b50505b505050565b600082821c905092915050565b6000620003546000198460080262000334565b1980831691505092915050565b60006200036f838362000341565b9150826002028217905092915050565b6200038a8262000105565b67ffffffffffffffff811115620003a657620003a562000110565b5b620003b282546200016e565b620003bf828285620002e4565b600060209050601f831160018114620003f75760008415620003e2578287015190505b620003ee858262000361565b8655506200045e565b601f1984166200040786620001a3565b60005b8281101562000431578489015182556001820191506020850194506020810190506200040a565b868310156200045157848901516200044d601f89168262000341565b8355505b6001600288020188555050505b505050505050565b61097c80620004766000396000f3fe608060405234801561001057600080fd5b506004361061004c5760003560e01c806319dec62a146100515780637db3a9461461005b5780638da5cb5b1461007c578063bd791a6e1461009a575b600080fd5b6100596100b6565b005b61006361010c565b60405161007394939291906103e8565b60405180910390f35b6100846101ff565b6040516100919190610434565b60405180910390f35b6100b460048036038101906100af91906105c4565b610223565b005b60018060020160146101000a81548160ff0219169083151502179055507fdab454c2728a824da628867a93d9a0962a43e4aff60ced01df47f4afc2f0e33d336040516101029190610434565b60405180910390a1565b600180600001805461011d9061064f565b80601f01602080910402602001604051908101604052809291908181526020018280546101499061064f565b80156101965780601f1061016b57610100808354040283529160200191610196565b820191906000526020600020905b81548152906001019060200180831161017957829003601f168201915b5050505050908060010160009054906101000a900473ffffffffffffffffffffffffffffffffffffffff16908060020160009054906101000a900473ffffffffffffffffffffffffffffffffffffffff16908060020160149054906101000a900460ff16905084565b60008054906101000a900473ffffffffffffffffffffffffffffffffffffffff1681565b81600160000190816102359190610836565b50336001800160006101000a81548173ffffffffffffffffffffffffffffffffffffffff021916908373ffffffffffffffffffffffffffffffffffffffff16021790555080600160020160006101000a81548173ffffffffffffffffffffffffffffffffffffffff021916908373ffffffffffffffffffffffffffffffffffffffff1602179055507f9f87208dfd82bcb4dfe864d5ba559c690d5f3db0b9b9d25816191c0eda7257c43382846040516102f093929190610908565b60405180910390a15050565b600081519050919050565b600082825260208201905092915050565b60005b8381101561033657808201518184015260208101905061031b565b60008484015250505050565b6000601f19601f8301169050919050565b600061035e826102fc565b6103688185610307565b9350610378818560208601610318565b61038181610342565b840191505092915050565b600073ffffffffffffffffffffffffffffffffffffffff82169050919050565b60006103b78261038c565b9050919050565b6103c7816103ac565b82525050565b60008115159050919050565b6103e2816103cd565b82525050565b600060808201905081810360008301526104028187610353565b905061041160208301866103be565b61041e60408301856103be565b61042b60608301846103d9565b95945050505050565b600060208201905061044960008301846103be565b92915050565b6000604051905090565b600080fd5b600080fd5b600080fd5b600080fd5b7f4e487b7100000000000000000000000000000000000000000000000000000000600052604160045260246000fd5b6104a582610342565b810181811067ffffffffffffffff821117156104c4576104c361046d565b5b80604052505050565b60006104d761044f565b90506104e3828261049c565b919050565b600067ffffffffffffffff8211156105035761050261046d565b5b61050c82610342565b9050602081019050919050565b82818337600083830152505050565b600061053b610536846104e8565b6104cd565b90508281526020810184848401111561055757610556610468565b5b610562848285610519565b509392505050565b600082601f83011261057f5761057e610463565b5b813561058f848260208601610528565b91505092915050565b6105a1816103ac565b81146105ac57600080fd5b50565b6000813590506105be81610598565b92915050565b600080604083850312156105db576105da610459565b5b600083013567ffffffffffffffff8111156105f9576105f861045e565b5b6106058582860161056a565b9250506020610616858286016105af565b9150509250929050565b7f4e487b7100000000000000000000000000000000000000000000000000000000600052602260045260246000fd5b6000600282049050600182168061066757607f821691505b60208210810361067a57610679610620565b5b50919050565b60008190508160005260206000209050919050565b60006020601f8301049050919050565b600082821b905092915050565b6000600883026106e27fffffffffffffffffffffffffffffffffffffffffffffffffffffffffffffffff826106a5565b6106ec86836106a5565b95508019841693508086168417925050509392505050565b6000819050919050565b6000819050919050565b600061073361072e61072984610704565b61070e565b610704565b9050919050565b6000819050919050565b61074d83610718565b6107616107598261073a565b8484546106b2565b825550505050565b600090565b610776610769565b610781818484610744565b505050565b5b818110156107a55761079a60008261076e565b600181019050610787565b5050565b601f8211156107ea576107bb81610680565b6107c484610695565b810160208510156107d3578190505b6107e76107df85610695565b830182610786565b50505b505050565b600082821c905092915050565b600061080d600019846008026107ef565b1980831691505092915050565b600061082683836107fc565b9150826002028217905092915050565b61083f826102fc565b67ffffffffffffffff8111156108585761085761046d565b5b610862825461064f565b61086d8282856107a9565b600060209050601f8311600181146108a0576000841561088e578287015190505b610898858261081a565b865550610900565b601f1984166108ae86610680565b60005b828110156108d6578489015182556001820191506020850194506020810190506108b1565b868310156108f357848901516108ef601f8916826107fc565b8355505b6001600288020188555050505b505050505050565b600060608201905061091d60008301866103be565b61092a60208301856103be565b818103604083015261093c8184610353565b905094935050505056fea26469706673582212208cbd17c4bbeed67f61ed01244035c9812884743894a73ab8782836e5862cf39864736f6c63430008130033",
      "immutableReferences": {},
      "source": "// SPDX-License-Identifier: UNLICENSED\r\npragma solidity ^0.8.0;\r\n\r\ncontract Agreement {\r\n    address public owner;\r\n    struct Terms {\r\n        string termsAndCondition;\r\n        address sender;\r\n        address receiver;\r\n        bool approved;\r\n    }\r\n    Terms public agreement;\r\n\r\n    event AgreementCreated(address sender, address receiver, string termsText);\r\n    event AgreementApproved(address approver);\r\n\r\n    constructor() {\r\n        owner = msg.sender;\r\n        agreement.termsAndCondition = \"\";\r\n        agreement.sender = address(0);\r\n        agreement.receiver = address(0);\r\n    }\r\n\r\n    function createAgreement(string memory _termsText, address _receiver)\r\n        public\r\n    {\r\n        agreement.termsAndCondition = _termsText;\r\n        agreement.sender = msg.sender;\r\n        agreement.receiver = _receiver;\r\n        emit AgreementCreated(msg.sender, _receiver, _termsText);\r\n       \r\n    }\r\n\r\n    function approveAgreement() public {\r\n        agreement.approved = true;\r\n        emit AgreementApproved(msg.sender);\r\n\r\n      \r\n    }\r\n}\r\n",
      "sourcePath": "C:\\Users\\acer\\Documents\\UCL\\4 yr\\CO3808 Project\\Project\\kryptruction\\backend\\contracts\\Agreement.sol",
      "compiler": {
            "name": "solc",
            "version": "0.8.19+commit.7dd6d404.Emscripten.clang"
      },
      "schemaVersion": "3.4.13",
      "updatedAt": "2023-04-02T18:04:00.656Z",
      "networkType": "ethereum",
      "devdoc": {
            "kind": "dev",
            "methods": {},
            "version": 1
      },
      "userdoc": {
            "kind": "user",
            "methods": {},
            "version": 1
      }
}